{
  "_format": "hh-sol-artifact-1",
  "contractName": "PartySplit",
  "sourceName": "contracts/PartySplit2.sol",
  "abi": [
    {
      "inputs": [
        {
          "internalType": "uint256",
          "name": "_cost",
          "type": "uint256"
        }
      ],
      "stateMutability": "nonpayable",
      "type": "constructor"
    },
    {
      "inputs": [],
      "name": "cost",
      "outputs": [
        {
          "internalType": "uint256",
          "name": "",
          "type": "uint256"
        }
      ],
      "stateMutability": "view",
      "type": "function"
    },
    {
      "inputs": [
        {
          "internalType": "uint256",
          "name": "",
          "type": "uint256"
        }
      ],
      "name": "members",
      "outputs": [
        {
          "internalType": "address",
          "name": "",
          "type": "address"
        }
      ],
      "stateMutability": "view",
      "type": "function"
    },
    {
      "inputs": [
        {
          "internalType": "address payable",
          "name": "_venue",
          "type": "address"
        },
        {
          "internalType": "uint256",
          "name": "_billAmount",
          "type": "uint256"
        }
      ],
      "name": "payBill",
      "outputs": [],
      "stateMutability": "nonpayable",
      "type": "function"
    },
    {
      "inputs": [
        {
          "internalType": "address",
          "name": "",
          "type": "address"
        }
      ],
      "name": "payments",
      "outputs": [
        {
          "internalType": "bool",
          "name": "",
          "type": "bool"
        }
      ],
      "stateMutability": "view",
      "type": "function"
    },
    {
      "inputs": [],
      "name": "rsvp",
      "outputs": [],
      "stateMutability": "payable",
      "type": "function"
    },
    {
      "inputs": [],
      "name": "totalDeposits",
      "outputs": [
        {
          "internalType": "uint256",
          "name": "",
          "type": "uint256"
        }
      ],
      "stateMutability": "view",
      "type": "function"
    }
  ],
  "bytecode": "0x608060405234801561001057600080fd5b50604051610abe380380610abe8339818101604052810190610032919061007a565b80600081905550506100a7565b600080fd5b6000819050919050565b61005781610044565b811461006257600080fd5b50565b6000815190506100748161004e565b92915050565b6000602082840312156100905761008f61003f565b5b600061009e84828501610065565b91505092915050565b610a08806100b66000396000f3fe6080604052600436106100555760003560e01c806313faede61461005a578063228a592714610085578063229344871461008f5780635daf08ca146100b85780637d882097146100f5578063e2982c2114610120575b600080fd5b34801561006657600080fd5b5061006f61015d565b60405161007c919061053d565b60405180910390f35b61008d610163565b005b34801561009b57600080fd5b506100b660048036038101906100b191906105e7565b6102f6565b005b3480156100c457600080fd5b506100df60048036038101906100da9190610627565b6104bd565b6040516100ec9190610675565b60405180910390f35b34801561010157600080fd5b5061010a6104fc565b604051610117919061053d565b60405180910390f35b34801561012c57600080fd5b50610147600480360381019061014291906106bc565b610504565b6040516101549190610704565b60405180910390f35b60005481565b60005434146101a7576040517f08c379a000000000000000000000000000000000000000000000000000000000815260040161019e9061077c565b60405180910390fd5b60001515600160003373ffffffffffffffffffffffffffffffffffffffff1673ffffffffffffffffffffffffffffffffffffffff16815260200190815260200160002060009054906101000a900460ff1615151461023a576040517f08c379a0000000000000000000000000000000000000000000000000000000008152600401610231906107e8565b60405180910390fd5b60018060003373ffffffffffffffffffffffffffffffffffffffff1673ffffffffffffffffffffffffffffffffffffffff16815260200190815260200160002060006101000a81548160ff0219169083151502179055506002339080600181540180825580915050600190039060005260206000200160009091909190916101000a81548173ffffffffffffffffffffffffffffffffffffffff021916908373ffffffffffffffffffffffffffffffffffffffff160217905550565b80471015610339576040517f08c379a000000000000000000000000000000000000000000000000000000000815260040161033090610854565b60405180910390fd5b600073ffffffffffffffffffffffffffffffffffffffff168273ffffffffffffffffffffffffffffffffffffffff16036103a8576040517f08c379a000000000000000000000000000000000000000000000000000000000815260040161039f906108c0565b60405180910390fd5b600060028054905082476103bc919061090f565b6103c69190610972565b90508273ffffffffffffffffffffffffffffffffffffffff166108fc839081150290604051600060405180830381858888f1935050505015801561040e573d6000803e3d6000fd5b5060005b6002805490508110156104b757600060028281548110610435576104346109a3565b5b9060005260206000200160009054906101000a900473ffffffffffffffffffffffffffffffffffffffff1690508073ffffffffffffffffffffffffffffffffffffffff166108fc849081150290604051600060405180830381858888f193505050501580156104a8573d6000803e3d6000fd5b50508080600101915050610412565b50505050565b600281815481106104cd57600080fd5b906000526020600020016000915054906101000a900473ffffffffffffffffffffffffffffffffffffffff1681565b600047905090565b60016020528060005260406000206000915054906101000a900460ff1681565b6000819050919050565b61053781610524565b82525050565b6000602082019050610552600083018461052e565b92915050565b600080fd5b600073ffffffffffffffffffffffffffffffffffffffff82169050919050565b60006105888261055d565b9050919050565b6105988161057d565b81146105a357600080fd5b50565b6000813590506105b58161058f565b92915050565b6105c481610524565b81146105cf57600080fd5b50565b6000813590506105e1816105bb565b92915050565b600080604083850312156105fe576105fd610558565b5b600061060c858286016105a6565b925050602061061d858286016105d2565b9150509250929050565b60006020828403121561063d5761063c610558565b5b600061064b848285016105d2565b91505092915050565b600061065f8261055d565b9050919050565b61066f81610654565b82525050565b600060208201905061068a6000830184610666565b92915050565b61069981610654565b81146106a457600080fd5b50565b6000813590506106b681610690565b92915050565b6000602082840312156106d2576106d1610558565b5b60006106e0848285016106a7565b91505092915050565b60008115159050919050565b6106fe816106e9565b82525050565b600060208201905061071960008301846106f5565b92915050565b600082825260208201905092915050565b7f496e636f727265637420636f6e747269627574696f6e20616d6f756e74000000600082015250565b6000610766601d8361071f565b915061077182610730565b602082019050919050565b6000602082019050818103600083015261079581610759565b9050919050565b7f7061796d656e7420616c726561647920646f6e65000000000000000000000000600082015250565b60006107d260148361071f565b91506107dd8261079c565b602082019050919050565b60006020820190508181036000830152610801816107c5565b9050919050565b7f496e73756666696369656e742062616c616e636520696e20636f6e7472616374600082015250565b600061083e60208361071f565b915061084982610808565b602082019050919050565b6000602082019050818103600083015261086d81610831565b9050919050565b7f496e76616c696420616464726573730000000000000000000000000000000000600082015250565b60006108aa600f8361071f565b91506108b582610874565b602082019050919050565b600060208201905081810360008301526108d98161089d565b9050919050565b7f4e487b7100000000000000000000000000000000000000000000000000000000600052601160045260246000fd5b600061091a82610524565b915061092583610524565b925082820390508181111561093d5761093c6108e0565b5b92915050565b7f4e487b7100000000000000000000000000000000000000000000000000000000600052601260045260246000fd5b600061097d82610524565b915061098883610524565b92508261099857610997610943565b5b828204905092915050565b7f4e487b7100000000000000000000000000000000000000000000000000000000600052603260045260246000fdfea26469706673582212206d5e83306723e75d1a6d2178b326281d1dc74f69110b49daa29607fceae8fa3a64736f6c63430008180033",
  "linkReferences": {},
  "deployedLinkReferences": {}
}