{
  "_format": "hh-sol-artifact-1",
  "contractName": "PartySplit5",
  "sourceName": "contracts/PartySplit3.sol",
  "abi": [
    {
      "inputs": [
        {
          "internalType": "uint256",
          "name": "_cost",
          "type": "uint256"
        }
      ],
      "stateMutability": "nonpayable",
      "type": "constructor"
    },
    {
      "inputs": [],
      "name": "cost",
      "outputs": [
        {
          "internalType": "uint256",
          "name": "",
          "type": "uint256"
        }
      ],
      "stateMutability": "view",
      "type": "function"
    },
    {
      "inputs": [
        {
          "internalType": "uint256",
          "name": "",
          "type": "uint256"
        }
      ],
      "name": "members",
      "outputs": [
        {
          "internalType": "address",
          "name": "",
          "type": "address"
        }
      ],
      "stateMutability": "view",
      "type": "function"
    },
    {
      "inputs": [
        {
          "internalType": "address payable",
          "name": "_venue",
          "type": "address"
        },
        {
          "internalType": "uint256",
          "name": "_billAmount",
          "type": "uint256"
        }
      ],
      "name": "payBill",
      "outputs": [],
      "stateMutability": "nonpayable",
      "type": "function"
    },
    {
      "inputs": [
        {
          "internalType": "address",
          "name": "",
          "type": "address"
        }
      ],
      "name": "payments",
      "outputs": [
        {
          "internalType": "bool",
          "name": "",
          "type": "bool"
        }
      ],
      "stateMutability": "view",
      "type": "function"
    },
    {
      "inputs": [],
      "name": "rsvp",
      "outputs": [],
      "stateMutability": "payable",
      "type": "function"
    },
    {
      "inputs": [],
      "name": "totalDeposits",
      "outputs": [
        {
          "internalType": "uint256",
          "name": "",
          "type": "uint256"
        }
      ],
      "stateMutability": "view",
      "type": "function"
    }
  ],
  "bytecode": "0x608060405234801561001057600080fd5b50604051610b62380380610b628339818101604052810190610032919061007a565b80600081905550506100a7565b600080fd5b6000819050919050565b61005781610044565b811461006257600080fd5b50565b6000815190506100748161004e565b92915050565b6000602082840312156100905761008f61003f565b5b600061009e84828501610065565b91505092915050565b610aac806100b66000396000f3fe6080604052600436106100555760003560e01c806313faede61461005a578063228a592714610085578063229344871461008f5780635daf08ca146100b85780637d882097146100f5578063e2982c2114610120575b600080fd5b34801561006657600080fd5b5061006f61015d565b60405161007c91906105e1565b60405180910390f35b61008d610163565b005b34801561009b57600080fd5b506100b660048036038101906100b1919061068b565b6102f6565b005b3480156100c457600080fd5b506100df60048036038101906100da91906106cb565b610523565b6040516100ec9190610719565b60405180910390f35b34801561010157600080fd5b5061010a610562565b60405161011791906105e1565b60405180910390f35b34801561012c57600080fd5b5061014760048036038101906101429190610760565b61056a565b60405161015491906107a8565b60405180910390f35b60005481565b60005434146101a7576040517f08c379a000000000000000000000000000000000000000000000000000000000815260040161019e90610820565b60405180910390fd5b60001515600160003373ffffffffffffffffffffffffffffffffffffffff1673ffffffffffffffffffffffffffffffffffffffff16815260200190815260200160002060009054906101000a900460ff1615151461023a576040517f08c379a00000000000000000000000000000000000000000000000000000000081526004016102319061088c565b60405180910390fd5b60018060003373ffffffffffffffffffffffffffffffffffffffff1673ffffffffffffffffffffffffffffffffffffffff16815260200190815260200160002060006101000a81548160ff0219169083151502179055506002339080600181540180825580915050600190039060005260206000200160009091909190916101000a81548173ffffffffffffffffffffffffffffffffffffffff021916908373ffffffffffffffffffffffffffffffffffffffff160217905550565b80471015610339576040517f08c379a0000000000000000000000000000000000000000000000000000000008152600401610330906108f8565b60405180910390fd5b600073ffffffffffffffffffffffffffffffffffffffff168273ffffffffffffffffffffffffffffffffffffffff16036103a8576040517f08c379a000000000000000000000000000000000000000000000000000000000815260040161039f90610964565b60405180910390fd5b600060028054905082476103bc91906109b3565b6103c69190610a16565b90508273ffffffffffffffffffffffffffffffffffffffff166108fc839081150290604051600060405180830381858888f1935050505015801561040e573d6000803e3d6000fd5b5060005b60028054905081101561050f5760006002828154811061043557610434610a47565b5b9060005260206000200160009054906101000a900473ffffffffffffffffffffffffffffffffffffffff1690508073ffffffffffffffffffffffffffffffffffffffff166108fc849081150290604051600060405180830381858888f193505050501580156104a8573d6000803e3d6000fd5b506000600160008373ffffffffffffffffffffffffffffffffffffffff1673ffffffffffffffffffffffffffffffffffffffff16815260200190815260200160002060006101000a81548160ff021916908315150217905550508080600101915050610412565b506002600061051e919061058a565b505050565b6002818154811061053357600080fd5b906000526020600020016000915054906101000a900473ffffffffffffffffffffffffffffffffffffffff1681565b600047905090565b60016020528060005260406000206000915054906101000a900460ff1681565b50805460008255906000526020600020908101906105a891906105ab565b50565b5b808211156105c45760008160009055506001016105ac565b5090565b6000819050919050565b6105db816105c8565b82525050565b60006020820190506105f660008301846105d2565b92915050565b600080fd5b600073ffffffffffffffffffffffffffffffffffffffff82169050919050565b600061062c82610601565b9050919050565b61063c81610621565b811461064757600080fd5b50565b60008135905061065981610633565b92915050565b610668816105c8565b811461067357600080fd5b50565b6000813590506106858161065f565b92915050565b600080604083850312156106a2576106a16105fc565b5b60006106b08582860161064a565b92505060206106c185828601610676565b9150509250929050565b6000602082840312156106e1576106e06105fc565b5b60006106ef84828501610676565b91505092915050565b600061070382610601565b9050919050565b610713816106f8565b82525050565b600060208201905061072e600083018461070a565b92915050565b61073d816106f8565b811461074857600080fd5b50565b60008135905061075a81610734565b92915050565b600060208284031215610776576107756105fc565b5b60006107848482850161074b565b91505092915050565b60008115159050919050565b6107a28161078d565b82525050565b60006020820190506107bd6000830184610799565b92915050565b600082825260208201905092915050565b7f496e636f727265637420636f6e747269627574696f6e20616d6f756e74000000600082015250565b600061080a601d836107c3565b9150610815826107d4565b602082019050919050565b60006020820190508181036000830152610839816107fd565b9050919050565b7f7061796d656e7420616c726561647920646f6e65000000000000000000000000600082015250565b60006108766014836107c3565b915061088182610840565b602082019050919050565b600060208201905081810360008301526108a581610869565b9050919050565b7f496e73756666696369656e742062616c616e636520696e20636f6e7472616374600082015250565b60006108e26020836107c3565b91506108ed826108ac565b602082019050919050565b60006020820190508181036000830152610911816108d5565b9050919050565b7f496e76616c696420616464726573730000000000000000000000000000000000600082015250565b600061094e600f836107c3565b915061095982610918565b602082019050919050565b6000602082019050818103600083015261097d81610941565b9050919050565b7f4e487b7100000000000000000000000000000000000000000000000000000000600052601160045260246000fd5b60006109be826105c8565b91506109c9836105c8565b92508282039050818111156109e1576109e0610984565b5b92915050565b7f4e487b7100000000000000000000000000000000000000000000000000000000600052601260045260246000fd5b6000610a21826105c8565b9150610a2c836105c8565b925082610a3c57610a3b6109e7565b5b828204905092915050565b7f4e487b7100000000000000000000000000000000000000000000000000000000600052603260045260246000fdfea2646970667358221220e7bed924012cc8e6da948959de3e8d0bdca431e6590d37d02542171416b9eccc64736f6c63430008180033",
  "linkReferences": {},
  "deployedLinkReferences": {}
}