{
  "_format": "hh-sol-artifact-1",
  "contractName": "Party",
  "sourceName": "contracts/PartySplit.sol",
  "abi": [
    {
      "inputs": [
        {
          "internalType": "uint256",
          "name": "_cost",
          "type": "uint256"
        }
      ],
      "stateMutability": "nonpayable",
      "type": "constructor"
    },
    {
      "inputs": [],
      "name": "cost",
      "outputs": [
        {
          "internalType": "uint256",
          "name": "",
          "type": "uint256"
        }
      ],
      "stateMutability": "view",
      "type": "function"
    },
    {
      "inputs": [
        {
          "internalType": "address",
          "name": "",
          "type": "address"
        }
      ],
      "name": "payments",
      "outputs": [
        {
          "internalType": "uint256",
          "name": "",
          "type": "uint256"
        }
      ],
      "stateMutability": "view",
      "type": "function"
    },
    {
      "inputs": [],
      "name": "rsvp",
      "outputs": [],
      "stateMutability": "payable",
      "type": "function"
    },
    {
      "inputs": [],
      "name": "totalDeposits",
      "outputs": [
        {
          "internalType": "uint256",
          "name": "",
          "type": "uint256"
        }
      ],
      "stateMutability": "view",
      "type": "function"
    }
  ],
  "bytecode": "0x608060405234801561001057600080fd5b506040516104ac3803806104ac8339818101604052810190610032919061007a565b80600081905550506100a7565b600080fd5b6000819050919050565b61005781610044565b811461006257600080fd5b50565b6000815190506100748161004e565b92915050565b6000602082840312156100905761008f61003f565b5b600061009e84828501610065565b91505092915050565b6103f6806100b66000396000f3fe60806040526004361061003f5760003560e01c806313faede614610044578063228a59271461006f5780637d88209714610079578063e2982c21146100a4575b600080fd5b34801561005057600080fd5b506100596100e1565b604051610066919061022c565b60405180910390f35b6100776100e7565b005b34801561008557600080fd5b5061008e6101f3565b60405161009b919061022c565b60405180910390f35b3480156100b057600080fd5b506100cb60048036038101906100c691906102aa565b6101fb565b6040516100d8919061022c565b60405180910390f35b60005481565b600054341461012b576040517f08c379a000000000000000000000000000000000000000000000000000000000815260040161012290610334565b60405180910390fd5b6000600160003373ffffffffffffffffffffffffffffffffffffffff1673ffffffffffffffffffffffffffffffffffffffff16815260200190815260200160002054146101ad576040517f08c379a00000000000000000000000000000000000000000000000000000000081526004016101a4906103a0565b60405180910390fd5b34600160003373ffffffffffffffffffffffffffffffffffffffff1673ffffffffffffffffffffffffffffffffffffffff16815260200190815260200160002081905550565b600047905090565b60016020528060005260406000206000915090505481565b6000819050919050565b61022681610213565b82525050565b6000602082019050610241600083018461021d565b92915050565b600080fd5b600073ffffffffffffffffffffffffffffffffffffffff82169050919050565b60006102778261024c565b9050919050565b6102878161026c565b811461029257600080fd5b50565b6000813590506102a48161027e565b92915050565b6000602082840312156102c0576102bf610247565b5b60006102ce84828501610295565b91505092915050565b600082825260208201905092915050565b7f496e636f727265637420636f6e747269627574696f6e20616d6f756e74000000600082015250565b600061031e601d836102d7565b9150610329826102e8565b602082019050919050565b6000602082019050818103600083015261034d81610311565b9050919050565b7f7061796d656e7420616c726561647920646f6e65000000000000000000000000600082015250565b600061038a6014836102d7565b915061039582610354565b602082019050919050565b600060208201905081810360008301526103b98161037d565b905091905056fea264697066735822122015801ab512d8eef9677eb97e01bc40d7cc0501742804cf9b40b4b543a094241564736f6c63430008180033",
  "linkReferences": {},
  "deployedLinkReferences": {}
}